:100000000C9462000C948A000C948A000C948A0070
:100010000C948A000C948A000C948A000C948A0038
:100020000C948A000C948A000C948A000C948A0028
:100030000C948A000C948A000C948A000C948A0018
:100040000C9487060C948A000C9455060C942F0689
:100050000C948A000C948A000C948A000C948A00F8
:100060000C948A000C948A000000000024002700F1
:100070002A0000000000250028002B0000000008D6
:10008000000201000003040700000000000000005F
:1000900000000000230026002900040404040404D6
:1000A0000404020202020202030303030303010227
:1000B00004081020408001020408102001020408F6
:1000C0001020D10611241FBECFEFD8E0DEBFCDBF78
:1000D00011E0A0E0B1E0E0EEF6E102C005900D9283
:1000E000A634B107D9F722E0A6E4B1E001C01D9221
:1000F000A731B207E1F710E0C2E6D0E004C02197D3
:10010000FE010E94680BC136D107C9F70E943D0766
:100110000C946E0B0C940000CF92DF92EF92FF9242
:10012000CF93DF93B091F301A0E08111AB2F8091C9
:10013000F40190E0880F991FAC0140575F4FC090C9
:10014000F901D090FA01E090FB01F090FC0130E061
:1001500020E0FA01C591D491E881B90190E080E0F6
:10016000EB23EA130AC02F5F3F4F6C157D058E0508
:100170009F0578F36FEF7FEFCB01DF91CF91FF9079
:10018000EF90DF90CF900895AF92BF92CF92DF9221
:10019000EF92FF920F931F93CF93DF936C017B013C
:1001A0008B01040F151FEB015E01AE18BF08C017CD
:1001B000D10759F06991D601ED91FC910190F08140
:1001C000E02DC6010995892B79F7C501DF91CF9103
:1001D0001F910F91FF90EF90DF90CF90BF90AF9065
:1001E0000895FC01538D448D252F30E0842F90E03D
:1001F000821B930B541710F0CF9608950197089522
:10020000FC01918D828D981761F0A28DAE0FBF2FEA
:10021000B11D5D968C91928D9F5F9F73928F90E040
:1002200008958FEF9FEF0895FC01918D828D9817AF
:1002300031F0828DE80FF11D858D90E008958FEFEC
:100240009FEF0895FC01918D228D892F90E0805CB5
:100250009F4F821B91098F73992708958FE491E036
:100260000E94220121E0892B09F420E0822F0895C9
:1002700080E090E0892B29F00E942E0181110C94DE
:1002800000000895FC01A48DA80FB92FB11DA35A39
:10029000BF4F2C91848D90E001968F739927848FA6
:1002A000A689B7892C93A089B1898C9183708064C9
:1002B0008C93938D848D981306C00288F389E02D6A
:1002C00080818F7D80830895EF92FF920F931F931B
:1002D000CF93DF93EC0181E0888F9B8D8C8D9813F9
:1002E0001AC0E889F989808185FF15C09FB7F89405
:1002F000EE89FF896083E889F98980818370806451
:1003000080839FBF81E090E0DF91CF911F910F919B
:10031000FF90EF900895F62E0B8D10E00F5F1F4FAA
:100320000F731127E02E8C8D8E110CC00FB607FCB9
:10033000FACFE889F989808185FFF5CFCE010E9447
:100340004201F1CFEB8DEC0FFD2FF11DE35AFF4F72
:10035000F0829FB7F8940B8FEA89FB8980818062D5
:10036000CFCFCF93DF93EC01888D8823B9F0AA8992
:10037000BB89E889F9898C9185FD03C0808186FD60
:100380000DC00FB607FCF7CF8C9185FFF2CF8081AF
:1003900085FFEDCFCE010E944201E9CFDF91CF91E1
:1003A000089590E0FC01E458FF4F2491FC01E255D0
:1003B000FF4F3491FC01E656FF4FE491EE23C9F064
:1003C000222339F0233001F1A8F4213019F1223031
:1003D00029F1F0E0EE0FFF1FEE58FF4FA591B49109
:1003E0008FB7F894EC91611126C030953E233C9371
:1003F0008FBF08952730A9F02830C9F0243049F77D
:10040000809180008F7D03C0809180008F778093E2
:100410008000DFCF84B58F7784BDDBCF84B58F7D3F
:10042000FBCF8091B0008F778093B000D2CF8091C6
:10043000B0008F7DF9CF3E2BDACFCF93DF9390E0E2
:10044000FC01E255FF4F249186569F4FFC01849199
:100450008823D1F090E0880F991FFC01E859FF4FE5
:10046000A591B491FC01EE58FF4FC591D491623033
:1004700071F49FB7F8943C91822F809583238C93DD
:10048000E8812E2B28839FBFDF91CF9108958FB7EE
:10049000F894EC912E2B2C938FBFF6CF3FB7F894A6
:1004A0008091470190914801A0914901B0914A0182
:1004B00026B5A89B05C02F3F19F00196A11DB11DBF
:1004C0003FBFBA2FA92F982F8827BC01CD01620FFB
:1004D000711D811D911D42E0660F771F881F991FB6
:1004E0004A95D1F708958F929F92AF92BF92CF9283
:1004F000DF92EF92FF924B015C010E944E026B0172
:100500007C010E944E026C197D098E099F09683E8C
:10051000734081059105A8F321E0821A9108A10892
:10052000B10888EEC80E83E0D81EE11CF11C8114CE
:100530009104A104B10429F7FF90EF90DF90CF90D0
:10054000BF90AF909F908F900895CF92DF92EF92DF
:10055000FF920F931F93CF93DF93CDB7DEB7C054B5
:10056000D1400FB6F894DEBF0FBECDBF2FB7F894C1
:1005700080914B0190914C01A0914D01B0914E01A1
:100580002FBF4091F5015091F6016091F7017091F4
:10059000F8018C019D01041B150B260B370BB901CB
:1005A000A801403D57406105710590F48091FD011F
:1005B000C05CDE4F0FB6F894DEBF0FBECDBFDF913B
:1005C000CF911F910F91FF90EF90DF90CF90089502
:1005D0008093F5019093F601A093F701B093F80191
:1005E0001092F0011092EF011092EE011092ED01C5
:1005F0001092EC0162E08091F1010E941D0261E025
:1006000070E080E090E00E94730261E08091F1016F
:100610000E941D0260E08091F1010E94D101809151
:10062000F2018551823020F58BE291E10197F1F7DB
:1006300062E08091F1010E941D028091FE0190E034
:100640008230910538F0880F991F880F991F059700
:100650000197F1F7F89480E00E948C006F3F7F4F84
:100660008F4F9F4F61F41092FD01789480E0A0CFEE
:1006700064E170E080E090E00E947302D9CF81E0F5
:100680000E948C006F3F7F4F8F4F9F4F61F38E0111
:100690000F5F1F4F6E018FEBC81A8EEFD80A7801DB
:1006A00080E00E948C00F7016083718382839383D2
:1006B00081E00E948C00F7016483758386839783B1
:1006C000F8E0EF0EF11CEC14FD0451F7789430E0E3
:1006D00020E0F801C080D180E280F3804481558120
:1006E00066817781FFEFCF16DF06EF06FF0631F058
:1006F0004F3F8FEF58076807780719F41092FD01F4
:10070000B5CFF90183E0F595E7958A95E1F7E451D6
:10071000FE4F8081880FC416D506E606F70610F155
:1007200080832F5F3F4F085F1F4F2832310589F6C6
:100730004091F0012091EC018091ED01280F3327C9
:10074000331F8091EE01280F311D8091EF01820F40
:10075000932F911D99274817190681F681E0809300
:10076000FD0126CF8160DCCF089590E080E0089500
:10077000FC0101900020E9F73197AF01481B590BAC
:10078000BC018FEF91E00C94C4008F929F92AF92C6
:10079000BF920F931F93CF93DF93CDB7DEB7A1978F
:1007A0000FB6F894DEBF0FBECDBF19A2423008F4D9
:1007B0004AE08E010F5D1F4F842E912CB12CA12C8D
:1007C000A50194010E94460BE62FB901CA01EA3047
:1007D000F4F4E05DD801EE938D01232B242B252B1F
:1007E00079F790E080E0109719F0CD010E94B803EE
:1007F000A1960FB6F894DEBF0FBECDBFDF91CF91AB
:100800001F910F91BF90AF909F908F900895E95CDA
:10081000E1CFCF93DF93EC0160E08E810E94D101A4
:1008200061E08E810E94D10160E08E810E94D10141
:100830008BE891E00197F1F7DF91CF910895CF9286
:10084000DF92EF92FF920F931F93CF93DF936C0190
:100850007C0187E0E80EF11CD0E0C0E0062F10E03C
:10086000B8010C2E02C0759567950A94E2F7617085
:10087000F70181917F010E94D1012196C430D105F9
:1008800079F7C601DF91CF911F910F91FF90EF9003
:10089000DF90CF900C940904CF92DF92EF92FF92F9
:1008A0000F931F93CF93DF93EC01F62E642F8C816F
:1008B0000E94D1018D818F3F19F060E00E94D1012B
:1008C0000F2D10E08F8584FF25C06E0187E0C80ED4
:1008D000D11CF12CE12CB8010E2C02C07595679546
:1008E0000A94E2F76170F60181916F010E94D101D3
:1008F000FFEFEF1AFF0A88E0E816F10461F7CE0176
:10090000DF91CF911F910F91FF90EF90DF90CF90EB
:100910000C940904B80184E0759567958A95E1F710
:10092000CE010E941F046F2DCE01DF91CF911F9148
:100930000F91FF90EF90DF90CF900C941F0440E058
:10094000682F8FEF91E00C944C04CF93DF938230AB
:1009500029F490910E02986090930E0280931202F7
:100960001092130280E48093140280E180931502B8
:1009700080E58093160261E0809103020E941D02CF
:10098000809104028F3F19F061E00E941D0261E036
:10099000809105020E941D02CFEFD1E09E012F5FE2
:1009A000314080910E0284FD0BC084E090E02196DE
:1009B0002817390744F461E08E810E941D02EECFB2
:1009C00088E090E0F4CF8BE39DE00197F1F760E0E1
:1009D000809103020E94D10160E0809105020E9493
:1009E000D101809104028F3F19F060E00E94D10193
:1009F00080910E0284FD39C063E08FEF91E00E9488
:100A00001F04CBE4D6E4CE010197F1F763E08FEF4A
:100A100091E00E941F042197F1F763E08FEF91E0CE
:100A20000E941F0483E592E00197F1F762E08FEFE7
:100A300091E00E941F0480910E0280620E949F0438
:100A400084E080930F028CE00E949F0481E00E946A
:100A50009F048BE39FE10197F1F782E080931002FE
:100A600086E0DF91CF910C949F0480620E949F04E6
:100A70008BE496E40197F1F780910E0280620E9468
:100A80009F0483E592E00197F1F780910E02806266
:100A90000E949F04D0CF41E00E944C0481E090E08E
:100AA00008954F925F926F927F928F929F92AF9232
:100AB000BF92CF92DF92EF92FF920F931F93CF934B
:100AC0006B017C01742EAC019B010E94410B8823B9
:100AD00099F08EE191E0CF911F910F91FF90EF90EF
:100AE000DF90CF90BF90AF909F908F907F906F904E
:100AF0005F904F900C94B80346015701E894B7F803
:100B00002FEF3FEF4FE75FE7C501B4010E94410BB4
:100B100081110DC02FEF3FEF4FE75FE7C501B40133
:100B20000E94770918161CF482E291E0D4CF2FEFCF
:100B30003FEF4FE75FE4C701B6010E94CF0A1816E6
:100B40001CF486E291E0C7CF2FEF3FEF4FE75FEC59
:100B5000C701B6010E94770987FDF3CF20E030E09E
:100B6000A901C701B6010E94770910E000E087FFE4
:100B70000CC041E06DE28FEF91E00E944C04F7FA67
:100B8000F094F7F8F09401E010E0C0E060E070E06D
:100B900080E09FE37C1641F020E030E040E251E449
:100BA0000E947C09CF5FF6CFA70196010E940B0936
:100BB0004B015C010E94EE092B013C014AE00E94BE
:100BC000C503080F191FCC23C9F1C301B2010E944C
:100BD0001D0A9B01AC01C501B4010E940A094B0129
:100BE0005C0141E06EE28FEF91E00E944C040F5FE8
:100BF0001F4FC15018F120E030E040E251E4C50140
:100C0000B4010E94D40A2B013C010E94EE094B0161
:100C1000B12CA12C4AE0C501B4010E94C503080F04
:100C2000191FC501B4010E941D0A9B01AC01C3013B
:100C3000B2010E940A094B015C01DBCFC801CF91D0
:100C40001F910F91FF90EF90DF90CF90BF90AF90EA
:100C50009F908F907F906F905F904F9008951F921C
:100C60000F920FB60F9211242F933F934F935F93E0
:100C70006F937F938F939F93AF93BF93EF93FF9364
:100C80008FE491E00E944201FF91EF91BF91AF91FB
:100C90009F918F917F916F915F914F913F912F9194
:100CA0000F900FBE0F901F9018951F920F920FB6C6
:100CB0000F9211242F938F939F93EF93FF93E091C3
:100CC0005F01F09160018081E0916501F091660122
:100CD00082FD1BC09081809168018F5F8F7320918E
:100CE0006901821741F0E0916801F0E0E15BFE4F9D
:100CF000958F80936801FF91EF919F918F912F9134
:100D00000F900FBE0F901F9018958081F4CF1F9207
:100D10000F920FB60F9211242F933F938F939F93AF
:100D2000AF93BF9380914B0190914C01A0914D01E5
:100D3000B0914E013091460123E0230F2D3758F535
:100D40000196A11DB11D2093460180934B01909304
:100D50004C01A0934D01B0934E01809147019091B9
:100D60004801A0914901B0914A010196A11DB11D10
:100D70008093470190934801A0934901B0934A01A1
:100D8000BF91AF919F918F913F912F910F900FBE87
:100D90000F901F90189526E8230F0296A11DB11DF4
:100DA000D2CFCF93EFE4F1E01382128288EE93E08A
:100DB000A0E0B0E084839583A683B78384E091E0CC
:100DC0009183808385EC90E09587848784EC90E024
:100DD0009787868780EC90E0918B808B81EC90E008
:100DE000938B828B82EC90E0958B848B86EC90E0E9
:100DF000978B868B118E128E138E148EEFEFF1E08F
:100E00001382128286E191E0918380838CE0848357
:100E10008FEF8583CBE0C68387E0878386E080877A
:100E200085E0818784E0828713861486158616867E
:100E3000178681E00E94A504ACEEB1E082E0159631
:100E40008C9315971696CC931697E0EBF0E0E4910F
:100E50001796EC931797ECE9F0E0E4911896EC9371
:100E6000189740E85EE360E070E01D964D935D9357
:100E70006D937C935097CF910895789484B5826058
:100E800084BD84B5816084BD85B5826085BD85B52E
:100E9000816085BD80916E00816080936E001092AC
:100EA0008100809181008260809381008091810027
:100EB00081608093810080918000816080938000B8
:100EC0008091B10084608093B1008091B000816016
:100ED0008093B00080917A00846080937A00809142
:100EE0007A00826080937A0080917A00816080939A
:100EF0007A0080917A00806880937A001092C10015
:100F000061E08DE00E941D0261E088E00E941D0208
:100F1000E0915F01F091600182E08083E0915B01EC
:100F2000F0915C011082E0915D01F0915E018FEC27
:100F3000808310926701E0916301F091640186E083
:100F40008083E0916101F091620180818061808302
:100F5000E0916101F0916201808188608083E0917D
:100F60006101F0916201808180688083E09161017C
:100F7000F091620180818F7D808362E08091F10138
:100F80000E941D022FB7F89480914B0190914C0163
:100F9000A0914D01B0914E012FBF805D9740A109F6
:100FA000B1098093F5019093F601A093F701B093F6
:100FB000F80187E38093FE01C0E0D0E06AEF70E0C3
:100FC00080E090E00E9473020E94A502882349F00D
:100FD0008091F2018B3028F08D3050F085518230B5
:100FE000C0F1812C912C20ECA22E2FE7B22E1EC036
:100FF0006091ED0170E090E080E00E941F0A2DEC0E
:101000003CEC4CEC5DE30E94D40A6B017C016091E6
:10101000EC0170E090E080E00E941F0A9B01AC01AF
:10102000C701B6010E940B094B015C010E94A50299
:10103000882341F08091F2018C3009F4C4C0D8F4C7
:101040008B3091F1C12CD12C80ECE82E8FE7F82E5B
:1010500055C06091EC017091ED01762767277627E6
:1010600090E080E00E941D0A2DEC3CEC4CEC5DE32E
:101070000E94D40AD9CF8551823020F71091EE0119
:10108000612F70E0762F662766277F778091EF01CA
:10109000682B90E080E00E941D0A2DEC3CEC4CECAB
:1010A0005DE30E94D40AABC06091EE0170E090E075
:1010B00080E00E941D0A6B017C011091EF0117FF77
:1010C0000AC0AC019B0160E070E080E89FEB0E94E9
:1010D0000A096B017C011F70612F70E090E080E0D5
:1010E0000E941F0A2DEC3CEC4CEC5DE30E94D40AFC
:1010F000A70196010E940B096B017C0120E030E002
:1011000040E752E4C501B4010E947709181624F0A3
:1011100060E08DE00E94D10120E030E040E752E441
:10112000C501B4010E94CF0A181624F461E08DE0D5
:101130000E94D10120E030E040EF51E4C701B60148
:101140000E94770987FF04C061E088E00E94D10116
:1011500020E030E040EF51E4C701B6010E94CF0A21
:1011600087FD04C060E088E00E94D10182E00E9417
:10117000A5048AE291E00E94B80342E0C501B401EF
:101180000E945105E0911202E23008F041C0E150A6
:10119000F0E0E150FE4F848980680E949F0486E35E
:1011A00091E00E94B80342E0C701B6010E945105D8
:1011B000209709F403CF0E942E01882309F4FECE64
:1011C0000E940000FBCE1091EE01612F70E090E0D4
:1011D00080E00E941D0A6B017C016091EF016F703D
:1011E00070E090E080E00E941F0A2DEC3CEC4CEC9B
:1011F0005DE30E94D40AA70196010E940B096B01CE
:101200007C0117FF7BCFF7FAF094F7F8F09476CFD4
:10121000E1E0BECF5058BB27AA270E9422090C94B8
:10122000950A0E94870A38F00E948E0A20F039F44D
:101230009F3F19F426F40C94840A0EF4E095E7FB22
:101240000C947E0AE92F0E94A60A58F3BA17620787
:1012500073078407950720F079F4A6F50C94C80A63
:101260000EF4E0950B2EBA2FA02D0B01B9019001C1
:101270000C01CA01A0011124FF27591B99F0593F05
:1012800050F4503E68F11A16F040A22F232F342F4D
:101290004427585FF3CF469537952795A795F0409B
:1012A0005395C9F77EF41F16BA0B620B730B840BB0
:1012B000BAF09150A1F0FF0FBB1F661F771F881F68
:1012C000C2F70EC0BA0F621F731F841F48F48795C0
:1012D00077956795B795F7959E3F08F0B0CF9395B2
:1012E000880F08F09927EE0F9795879508950E942B
:1012F0005A0A08F481E008950E9490090C94950A16
:101300000E948E0A58F00E94870A40F029F45F3F3D
:1013100029F00C947E0A51110C94C90A0C94840A89
:101320000E94A60A68F39923B1F3552391F3951B04
:10133000550BBB27AA2762177307840738F09F5FF6
:101340005F4F220F331F441FAA1FA9F335D00E2E63
:101350003AF0E0E832D091505040E695001CCAF7D0
:101360002BD0FE2F29D0660F771F881FBB1F261793
:1013700037074807AB07B0E809F0BB0B802DBF016A
:10138000FF2793585F4F3AF09E3F510578F00C9439
:101390007E0A0C94C90A5F3FE4F3983ED4F3869525
:1013A00077956795B795F7959F5FC9F7880F911D5A
:1013B0009695879597F90895E1E0660F771F881F46
:1013C000BB1F621773078407BA0720F0621B730BF9
:1013D000840BBA0BEE1F88F7E09508950E94AE0AC1
:1013E00088F09F5798F0B92F9927B751B0F0E1F0E6
:1013F000660F771F881F991F1AF0BA95C9F714C096
:10140000B13091F00E94C80AB1E008950C94C80A66
:10141000672F782F8827B85F39F0B93FCCF38695CE
:1014200077956795B395D9F73EF49095809570952B
:1014300061957F4F8F4F9F4F0895E89409C097FBA8
:101440003EF490958095709561957F4F8F4F9F4F9B
:101450009923A9F0F92F96E9BB279395F6958795DF
:1014600077956795B795F111F8CFFAF4BB0F11F4A2
:1014700060FF1BC06F5F7F4F8F4F9F4F16C0882349
:1014800011F096E911C0772321F09EE8872F762F7F
:1014900005C0662371F096E8862F70E060E02AF0C0
:1014A0009A95660F771F881FDAF7880F96958795AC
:1014B00097F90895990F0008550FAA0BE0E8FEEF81
:1014C00016161706E807F907C0F012161306E40708
:1014D000F50798F0621B730B840B950B39F40A2601
:1014E00061F0232B242B252B21F408950A2609F4DF
:1014F000A140A6958FEF811D811D089597F99F67E3
:1015000080E870E060E008959FEF80EC089500248B
:101510000A941616170618060906089500240A9458
:1015200012161306140605060895092E0394000CDE
:1015300011F4882352F0BB0F40F4BF2B11F460FF6D
:1015400004C06F5F7F4F8F4F9F4F089557FD905896
:10155000440F551F59F05F3F71F04795880F97FB77
:10156000991F61F09F3F79F0879508951216130631
:101570001406551FF2CF4695F1DF08C01616170660
:101580001806991FF1CF8695710561050894089595
:10159000E894BB2766277727CB0197F908950E9427
:1015A0005A0A08F48FEF08950E94E70A0C94950AEE
:1015B0000E94870A38F00E948E0A20F0952311F0CD
:1015C0000C947E0A0C94840A11240C94C90A0E947B
:1015D000A60A70F3959FC1F3950F50E0551F629FC7
:1015E000F001729FBB27F00DB11D639FAA27F00D7C
:1015F000B11DAA1F649F6627B00DA11D661F829FA3
:101600002227B00DA11D621F739FB00DA11D621F87
:10161000839FA00D611D221F749F3327A00D611DA4
:10162000231F849F600D211D822F762F6A2F112486
:101630009F5750409AF0F1F088234AF0EE0FFF1FB9
:10164000BB1F661F771F881F91505040A9F79E3F10
:10165000510580F00C947E0A0C94C90A5F3FE4F3B4
:10166000983ED4F3869577956795B795F795E79566
:101670009F5FC1F7FE2B880F911D9695879597F96F
:1016800008950E945A0A880B990B0895A1E21A2E18
:10169000AA1BBB1BFD010DC0AA1FBB1FEE1FFF1F16
:1016A000A217B307E407F50720F0A21BB30BE40B66
:1016B000F50B661F771F881F991F1A9469F76095AD
:1016C0007095809590959B01AC01BD01CF01089567
:1016D000EE0FFF1F0590F491E02D0994F894FFCFD1
:1016E000000000006401C400F100B101220100010A
:1016F0001401000000004B05C400B503B4036E6183
:101700006E00696E66006F76660048756D69646983
:101710007479203A200054656D7065726174757239
:0617200065203A200000E4
:00000001FF
